:100000000C94AA000C94D2000C94D2000C94D20050
:100010000C94D2000C94D2000C94D2000C94D20018
:100020000C94D2000C94D2000C94D2000C94D20008
:100030000C94D2000C94D2000C94D2000C94D200F8
:100040000C94C4030C94D2000C9410030C94EA0298
:100050000C94D2000C94D2000C94D2000C94D200D8
:100060000C94D2000C94D20007634236B79BD8A7F9
:100070001A39685618AEBAAB558C1D3CB7CC5763CD
:10008000BD6DEDFD753EF6177231BF000000803F7B
:1000900008000000BE922449123EABAAAA2ABECD97
:1000A000CCCC4C3E00000080BEABAAAAAA3E000009
:1000B0000000BF000000803F000000000008417801
:1000C000D3BB4387D1133D190E3CC3BD4282AD2B38
:1000D0003E68EC8276BED98FE1A93E4C80EFFFBE30
:1000E00001C4FF7F3F00000000006364696E6F7011
:1000F000737578585B0000000000240027002A0078
:1001000000000000250028002B0000000000230054
:100110002600290004040404040404040202020268
:1001200002020303030303030102040810204080BA
:100130000102040810200102040810200000000839
:10014000000201000003040700000000000000009E
:100150008D0B870B11241FBECFEFD8E0DEBFCDBFC4
:1001600022E0A2E6B1E001C01D92A236B207E1F79B
:1001700011E0A0E0B1E0EAEBFAE202C005900D92D6
:10018000A236B107D9F710E0C9EAD0E004C0219740
:10019000FE010E941510C83AD107C9F70E949605C2
:1001A0000C9450150C9400000895DC01ED91FC9125
:1001B0000190F081E02D0994CF92DF92EF92FF92AF
:1001C0000F931F93CF93DF936C017A018B01C0E0F3
:1001D000D0E0CE15DF0589F0D8016D918D01D601F3
:1001E000ED91FC910190F081E02DC6010995892BDC
:1001F00011F47E0102C02196ECCFC701DF91CF91AF
:100200001F910F91FF90EF90DF90CF900895FC0128
:10021000538D448D252F30E0842F90E0821B930B6B
:10022000541710F0CF96089501970895FC01918D11
:10023000828D981761F0828DDF01A80FB11D5D9648
:100240008C91928D9F5F9F73928F90E008958FEFB6
:100250009FEF0895FC01918D828D981731F0828D6A
:10026000E80FF11D858D90E008958FEF9FEF0895C1
:10027000FC01918D228D892F90E0805C9F4F821B25
:1002800091098F739927089583EA91E00E943801BC
:1002900021E0892B09F420E0822F0895FC01848D50
:1002A000DF01A80FB11DA35ABF4F2C91848D90E0A0
:1002B00001968F739927848FA689B7892C93A0897B
:1002C000B1898C9180648C93938D848D981306C032
:1002D0000288F389E02D80818F7D80830895EF92DD
:1002E000FF920F931F93CF93DF93EC0181E0888FF0
:1002F0009B8D8C8D981305C0E889F989808185FDD7
:1003000024C0F62E0B8D10E00F5F1F4F0F731127C7
:10031000E02E8C8DE8120CC00FB607FCFACFE889EE
:10032000F989808185FFF5CFCE010E944E01F1CF82
:100330008B8DFE01E80FF11DE35AFF4FF0820B8F0A
:10034000EA89FB898081806207C0EE89FF8960832A
:10035000E889F98980818064808381E090E0DF9181
:10036000CF911F910F91FF90EF900895CF93DF935E
:10037000EC01888D8823C9F0EA89FB89808185FD9D
:1003800005C0A889B9898C9186FD0FC00FB607FCFE
:10039000F5CF808185FFF2CFA889B9898C9185FF3F
:1003A000EDCFCE010E944E01E7CFDF91CF910895AE
:1003B00080E090E0892B29F00E94440181110C9487
:1003C00000000895833081F028F4813099F0823064
:1003D000A1F008958730A9F08830B9F08430D1F4C5
:1003E000809180008F7D03C0809180008F77809303
:1003F0008000089584B58F7702C084B58F7D84BD59
:1004000008958091B0008F7703C08091B0008F7DF8
:100410008093B0000895CF93DF93282F30E0F90147
:10042000E45CFE4F8491F901E85DFE4FD491F9013F
:10043000EC5EFE4FC491CC2391F081110E94E20149
:10044000EC2FF0E0EE0FFF1FE65FFE4FA591B49199
:10045000EC91ED2381E090E021F480E002C080E0A7
:1004600090E0DF91CF910895089580E090E00895A5
:100470006115710579F0FB0101900020E9F73197D2
:10048000AF01461B570BDC01ED91FC910280F3811B
:10049000E02D099480E090E008954F925F926F9272
:1004A0007F92EF92FF920F931F93CF93DF93CDB77D
:1004B000DEB7A1970FB6F894DEBF0FBECDBF7C01AB
:1004C000FA01CB0119A2223008F42AE08E010F5D57
:1004D0001F4F422E512C612C712CBF01A3019201A0
:1004E0000E94F30FF901CA01015011096A3014F496
:1004F000605D01C0695CD8016C93232B242B252BF4
:1005000061F7B801C7010E943802A1960FB6F894AE
:10051000DEBF0FBECDBFDF91CF911F910F91FF9036
:10052000EF907F906F905F904F9008950E9412120D
:100530000F931F93CF93DF93EC01888199810097EC
:1005400029F02A813B812617370788F48B016F5FDA
:100550007F4F0E944811009761F0998388831B8325
:100560000A832C813D81232B11F4FC01108281E050
:1005700001C080E0DF91CF911F910F910895EF921C
:10058000FF920F931F93CF93DF93EC017B018A01BE
:10059000BA010E9498022881398181110DC021156C
:1005A000310519F0C9010E94B010198218821D820C
:1005B0001C821B821A8206C01D830C83B701C901ED
:1005C0000E942012CE01DF91CF911F910F91FF90D9
:1005D000EF9008951F920F920FB60F9211242F9350
:1005E0003F934F935F936F937F938F939F93AF93BB
:1005F000BF93EF93FF9383EA91E00E944E01FF9136
:10060000EF91BF91AF919F918F917F916F915F918A
:100610004F913F912F910F900FBE0F901F90189503
:100620001F920F920FB60F9211242F938F939F93C7
:10063000EF93FF93E091B301F091B4018081E091D9
:10064000B901F091BA0182FD12C090818091BC0184
:100650008F5F8F732091BD01821751F0E091BC0133
:10066000F0E0ED55FE4F958F8093BC0101C0808175
:10067000FF91EF919F918F912F910F900FBE0F904F
:100680001F9018951F93CF93DF93282F30E0F90127
:10069000E45CFE4F8491F901E85DFE4FD491F901CD
:1006A000EC5EFE4FC491CC23C9F0162F81110E943D
:1006B000E201EC2FF0E0EE0FFF1FE050FF4FA5919D
:1006C000B4918FB7F894111105C09C91ED2FE0956E
:1006D000E92302C0EC91ED2BEC938FBFDF91CF911A
:1006E0001F910895CF93DF93EC0160E08E810E940B
:1006F000420361E08E810E94420360E08E810E948D
:1007000042038BE891E00197F1F7DF91CF910895D3
:10071000CF93DF9390E0FC01E85DFE4F2491FC0154
:10072000EC5EFE4F8491882361F190E0880F991F61
:10073000FC01EA50FF4FC591D491FC01E050FF4FFE
:10074000A591B491611109C09FB7F8948881209553
:1007500082238883EC912E230BC0623061F49FB713
:10076000F8943881822F809583238883EC912E2BF7
:100770002C939FBF06C08FB7F894E8812E2B288357
:100780008FBFDF91CF9108951F920F920FB60F92F6
:1007900011242F933F938F939F93AF93BF93809197
:1007A0009F019091A001A091A101B091A20130916F
:1007B000620123E0230F2D3720F40196A11DB11D06
:1007C00005C026E8230F0296A11DB11D20936201EA
:1007D00080939F019093A001A093A101B093A201E7
:1007E0008091630190916401A0916501B0916601CF
:1007F0000196A11DB11D8093630190936401A093A4
:100800006501B0936601BF91AF919F918F913F9128
:100810002F910F900FBE0F901F901895CF92DF92DF
:10082000EF92FF920F931F93CF93DF937C016C01A4
:1008300087E0C80ED11CC0E0D0E0062F10E0B80160
:100840000C2E02C0759567950A94E2F76170F60167
:1008500081916F010E9442032196C430D10579F73E
:10086000C701DF91CF911F910F91FF90EF90DF9023
:10087000CF900C947203CF92DF92EF92FF920F937E
:100880001F93CF93DF93EC01F62E642F8C810E948F
:1008900042038D818F3F19F060E00E9442038F85F3
:1008A0000F2D10E084FF25C06E0187E0C80ED11C1B
:1008B000E12CF12CB8010E2C02C0759567950A94B5
:1008C000E2F76170F60181916F010E944203FFEF30
:1008D000EF1AFF0A88E0E816F10461F7CE01DF9114
:1008E000CF911F910F91FF90EF90DF90CF900C94DC
:1008F0007203B80184E0759567958A95E1F7CE019A
:100900000E940E046F2DCE01DF91CF911F910F91A8
:10091000FF90EF90DF90CF900C940E0441E00E9486
:100920003B0481E090E0089540E00C943B04EF929A
:10093000FF920F931F93CF93DF93EC01423018F097
:100940008F8588608F874B8B1C8A80E48D8B6E8BA4
:1009500070E0605C7F4F6F8B61E08C810E94880348
:100960008D818F3F19F061E00E94880361E08E81E4
:100970000E9488037E0187E0E80EF11C00E010E091
:100980008F8584FD03C084E090E002C088E090E0A1
:10099000081719074CF461E0F70181917F010E946B
:1009A00088030F5F1F4FECCF8BE39DE00197F1F7BA
:1009B00060E08C810E94420360E08E810E944203CD
:1009C0008D818F3F19F060E00E9442036F8564FDC6
:1009D0001DC063E0CE010E940E040BE416E4C801C2
:1009E0000197F1F763E0CE010E940E04C801019760
:1009F000F1F763E0CE010E940E0483E592E00197D7
:100A0000F1F762E0CE010E940E0416C06062CE01D2
:100A10000E9494048BE496E40197F1F76F8560627D
:100A2000CE010E94940483E592E00197F1F76F856F
:100A30006062CE010E9494046F856062CE010E94C4
:100A4000940484E0888B6CE0CE010E94940461E001
:100A5000CE010E9494048BE39FE10197F1F782E0BD
:100A6000898B66E0CE01DF91CF911F910F91FF90AE
:100A7000EF900C949404643008F063E09091590274
:100A8000691710F06FEF690FE62FF0E0EA5BFD4F9A
:100A90009489682F690F606886E492E00C9494044E
:100AA0002FB7F89480919F019091A001A091A1018E
:100AB000B091A2012FBF8093AB019093AC01A093A2
:100AC000AD01B093AE01E091A301F091A4010284C5
:100AD000F385E02D83EA91E0099597FF26C02FB7B3
:100AE000F89480919F019091A001A091A101B091F3
:100AF000A2012FBF4091AB015091AC016091AD01BB
:100B00007091AE01841B950BA60BB70B4091A7010A
:100B10005091A8016091A9017091AA0184179507CD
:100B2000A607B70780F28FEF9FEF0895CF93DF936B
:100B3000CDB7DEB728970FB6F894DEBF0FBECDBF96
:100B4000789484B5826084BD84B5816084BD85B5A8
:100B5000826085BD85B5816085BD80916E008160B4
:100B600080936E001092810080918100826080935A
:100B7000810080918100816080938100809180005C
:100B80008160809380008091B10084608093B10087
:100B90008091B00081608093B00080917A00846081
:100BA00080937A0080917A00826080937A008091AD
:100BB0007A00816080937A0080917A0080688093C7
:100BC0007A001092C100E091B301F091B40182E08B
:100BD0008083E091AF01F091B0011082E091B1010A
:100BE000F091B20180E180831092BB01E091B701E6
:100BF000F091B80186E08083E091B501F091B601F3
:100C0000808180618083E091B501F091B60180819F
:100C100088608083E091B501F091B60180818068A1
:100C20008083E091B501F091B60180818F7D808352
:100C300060E082E00E94880361E082E00E9442035B
:100C400060E08FE00E94880361E08FE00E94420331
:100C500060E083E10E94880361E083E10E94420337
:100C600061E086E30E94880361E086E20E948803D7
:100C700061E087E30E94880360E086E20E9442030D
:100C800060E087E30E94420361E08CE30E948803F6
:100C900061E088E30E94880361E08DE30E9488039D
:100CA00060E088E30E94420360E08DE30E9442031B
:100CB00061E08EE20E94880361E08EE30E94880377
:100CC00061E080E30E94880360E08EE30E944203BB
:100CD00060E080E30E94420361E08AE10E948803B1
:100CE00061E088E10E94880361E08CE10E94880352
:100CF00060E088E10E94420360E08CE10E944203D0
:100D000061E08CE20E94880361E08CE20E94420371
:100D100061E08AE00E94880360E08AE00E9442036A
:100D200044E064E186E492E00E9497045BE8252EAB
:100D300051E0352E0DE811E03FB7F8948091630142
:100D400090916401A0916501B091660126B5A89BC0
:100D500005C02F3F19F00196A11DB11D3FBFBA2F4D
:100D6000A92F982F8827820F911DA11DB11DBC01AD
:100D7000CD0142E0660F771F881F991F4A95D1F772
:100D80000E94F60B60939B0170939C0180939D01E0
:100D900090939E0183E00E940B023C0190939A0184
:100DA0008093990182E00E940B02BC01990F880B8D
:100DB000990B0E94F80B4B015C01609395017093B5
:100DC000960180939701909398018FE00E940B0207
:100DD0006C01909394018093930183E10E940B0234
:100DE0007C019093920180939101672851F461E016
:100DF00086E20E94420361E088E30E94420361E0D0
:100E000009C060E086E20E94420360E088E30E943D
:100E1000420360E08EE30E94420320E030E0A9013B
:100E2000C501B4010E94F10B811114C080918F01A2
:100E300090919001181619066CF461E086E30E9407
:100E4000420380918F0190919001019790939001BE
:100E500080938F01CD28A1F480918D0190918E0116
:100E6000181619066CF461E08CE30E94420380912D
:100E70008D0190918E01019790938E0180938D0149
:100E8000EF28A1F480918B0190918C01181619061E
:100E90006CF461E08EE20E94420380918B0190919C
:100EA0008C01019790938C0180938B018091890133
:100EB00090918A0118161906BCF4809187019091CF
:100EC000880106978CF061E08AE10E9442038091DC
:100ED000890190918A01019790938A0180938901F9
:100EE00010928801109287019FE8A92E91E0B92EF7
:100EF0002AE2C22E21E0D22E83EA91E00E9438013C
:100F0000181619060CF0F0C01A8219821C821B8276
:100F10001E821D8240E050E067E471E0CE01019640
:100F20000E94BF020E94500597FD1FC08A309105A4
:100F3000E1F08F831886ED80FE802FEFE21AF20A2F
:100F4000B701CE0101960E949802882359F32981A6
:100F50003A818D819E81BE01695F7F4F820F931F11
:100F60000E942012FE82ED82DDCF8091400290919E
:100F700041020097C9F069817A816115710591F08C
:100F800040914202509143022D813E814217530706
:100F900048F00E9420128D819E819093450280939B
:100FA000440218C00E94B01089819A819093410236
:100FB000809340028B819C819093430280934202F4
:100FC0008D819E8190934502809344021A821982FA
:100FD0001C821B821E821D8289819A810E94B01010
:100FE000A5E8B1E0BF93AF93A9E8B1E0BF93AF9399
:100FF0003F922F921F930F93BF92AF92DF92CF92A7
:10100000809141028F93809140028F930E9427121A
:101010001092050110920401609185017091860182
:10102000072E000C880B990B0E94F80B60930001AF
:1010300070930101809302019093030180918901D3
:1010400090918A010FB6F894DEBF0FBECDBF18167F
:10105000190614F460E008C0919581959109909368
:101060008A018093890161E08CE10E9442038091B2
:101070008F01909190011816190614F460E008C0D1
:101080009195819591099093900180938F0161E0F2
:1010900087E30E94420380918D0190918E01181682
:1010A000190614F460E008C0919581959109909318
:1010B0008E0180938D0161E08DE30E944203809157
:1010C0008B0190918C011816190614F460E008C089
:1010D00091958195910990938C0180938B0161E0AA
:1010E00080E30E94420308CF83E2E82EF12CC7017F
:1010F0000197F1F760E086E30E94420360E08CE331
:101100000E94420360E08EE20E94420360E08AE1B6
:101110000E944203C7010197F1F780918F019091DE
:101120009001892B09F043C080918D0190918E012F
:10113000892BE9F580918B0190918C01892BB9F570
:101140008091890190918A01892B89F58091040110
:1011500090910501892B59F5C0909301D09094018D
:101160000D2C000CEE08FF08F7FE0EC06DE283EABE
:1011700091E00E94D50044275527BA014C195D091A
:101180006E097F092AE003C02AE0B701A60183EABD
:1011900091E00E944D0265E471E083EA91E00E94D3
:1011A000380281E090E0909305018093040185E48A
:1011B00080937C0080917A00806480937A00809193
:1011C0007A0086FDFCCF609178008091790070E014
:1011D000782B072E000C880B990B0E94F80B6B01E3
:1011E0007C016093810170938201809383019093CD
:1011F0008401609395017093960180939701909379
:10120000980120E030E040E450E40E94690E4B0178
:101210005C012DE93DEA40E65FEBC701B6010E94A3
:10122000570C24ED37E542E953E40E94500D2B01A1
:101230003C01A7019601C701B6010E94570C2AE59F
:101240003BE848EB5AE30E94570C9B01AC01C301F9
:10125000B2010E94500D6B017C012FEF3DEC4AE57D
:1012600055EBC501B4010E94570C9B01AC01C701AD
:10127000B6010E94500D0E942E0E6B017C017093EE
:101280009401609393018AE097EDA3EABDE3809314
:101290007D0190937E01A0937F01B0938001209106
:1012A000790130917A0140917B0150917C016091EC
:1012B0009B0170919C0180919D0190919E010E94E3
:1012C0004F0D2B013C016093750170937601809363
:1012D0007701909378018090000190900101A09097
:1012E0000201B0900301B601DD0C880B990B0E943E
:1012F000F80B9B01AC01C501B4010E944F0D6B01BD
:101300007C016093710170937201809373019093DB
:10131000740120E034E244E759E4C301B2010E94C1
:10132000BC0DA70196010E94570C20916D013091D0
:101330006E0140916F01509170010E94500D2B0180
:101340003C0160936D0170936E0180936F019093E7
:10135000700120E030E040EA51E4C501B4010E9490
:101360004F0D9B01AC01C701B6010E94BC0D20E0EE
:1013700030E04FE753E40E94570C6B017C012AE0F8
:1013800037ED43EA5DE3C301B2010E94570C9B01B4
:10139000AC01C701B6010E94500D6B017C01609346
:1013A000690170936A0180936B0190936C0120E056
:1013B00030E04FE753E40E94F10B18160CF460C0C4
:1013C00020E030E0A901C701B6010E94640E87FD4C
:1013D00057C0C701B6010E942E0E4B015C017B0174
:1013E00061E08AE00E9488038114910409F470C0CE
:1013F000BFEF8B16910409F45DC0E6E4F1E0E491DF
:10140000E330F9F048F4E130B9F0E230A1F584B509
:10141000806284BD88BC60C0E730E9F0E83019F133
:10142000E43049F580918000806280938000909242
:101430008B0080928A0050C084B5806884BD87BCD0
:101440004BC08091800080688093800090928900DA
:101450008092880041C08091B00080688093B00085
:101460008092B30039C08091B00080628093B00058
:101470008092B40031C020E8E216F104DCF428C008
:1014800020E030E04FE753E4C701B6010E94640E4C
:10149000181694F480E090E0AFE7B3E4809369011C
:1014A00090936A01A0936B01B0936C0161E08AE0B4
:1014B0000E94880361E00DC01092690110926A01D8
:1014C00010926B0110926C0161E08AE00E94880327
:1014D00060E08AE00E944203809167019091680178
:1014E000893E93400CF4EEC060E080E00E943B0532
:1014F00068E471E086E492E00E94380260E086E0F1
:101500000E943B05C0909301D09094010D2C000CDB
:10151000EE08FF08F7FE0EC06DE286E492E00E943E
:10152000D50044275527BA014C195D096E097F097A
:101530002AE003C02AE0B701A60186E492E00E94F7
:101540004D0261E080E00E943B056FE471E086E4BB
:1015500092E00E94380261E086E00E943B05C09064
:101560000001D0900101E0900201F0900301A70179
:101570009601C701B6010E94B90E882319F066E5ED
:1015800071E01AC046015701E894B7F82FEF3FEF1A
:101590004FE75FE7C501B4010E94B90E811111C088
:1015A0002FEF3FEF4FE75FE7C501B4010E94F10B5A
:1015B00018163CF46AE571E086E492E00E94380275
:1015C0007DC02FEF3FEF4FE75FE4C701B6010E94F8
:1015D000640E18161CF46EE571E0EECF2FEF3FEFAE
:1015E0004FE75FECC701B6010E94F10B87FDF3CF17
:1015F00020E030E0A901C701B6010E94F10B87FF8E
:1016000009C06DE286E492E00E94D500F7FAF094FA
:10161000F7F8F0942AE037ED43EA5BE3C701B6013F
:101620000E94500D4B015C010E94350E6B017C0144
:101630000E94F60B9B01AC01C501B4010E944F0D45
:101640004B015C012AE0B701A60186E492E00E940A
:101650004D026EE286E492E00E94D50020E030E088
:1016600040E251E4C501B4010E94570C6B017C01BA
:101670000E94350E4B01A12CB12C2AE0B501A4012A
:1016800086E492E00E944D02C501B4010E94F60B6F
:101690009B01AC01C701B6010E944F0D20E030E074
:1016A00040E251E40E94570C0E94350EAB0160E00D
:1016B00070E02AE086E492E00E944D0210926801F8
:1016C0001092670180916701909168010196909353
:1016D000680180936701809187019091880101964C
:1016E000909388018093870180919B0190919C0148
:1016F000A0919D01B0919E018093790190937A0110
:10170000A0937B01B0937C010E94D80115CB8091FE
:101710004002909141020C94B010E3EAF1E0138290
:10172000128288EE93E0A0E0B0E084839583A683E4
:10173000B78380E191E09183808385EC90E0958789
:10174000848784EC90E09787868780EC90E0918B8B
:10175000808B81EC90E0938B828B82EC90E0958B78
:10176000848B86EC90E0978B868B118E128E138E75
:10177000148EE6E4F2E01382128282E291E0918319
:10178000808380E184838FEF858381E1868387E195
:10179000878389E180878BE181878DE1828713864A
:1017A000148615861686178641E060E1CF010E94F7
:1017B0009704E0E4F2E01182108213821282158213
:1017C000148240E050E067E471E0CF010C94BF0266
:1017D00091110C94C40C803219F089508550C8F7CF
:1017E00008950E94330C08F481E00895E89409C03C
:1017F00097FB3EF490958095709561957F4F8F4F44
:101800009F4F9923A9F0F92F96E9BB279395F69559
:10181000879577956795B795F111F8CFFAF4BB0FD7
:1018200011F460FF1BC06F5F7F4F8F4F9F4F16C03B
:10183000882311F096E911C0772321F09EE8872FC5
:10184000762F05C0662371F096E8862F70E060E081
:101850002AF09A95660F771F881FDAF7880F9695FA
:10186000879597F90895990F0008550FAA0BE0E89E
:10187000FEEF16161706E807F907C0F01216130652
:10188000E407F50798F0621B730B840B950B39F492
:101890000A2661F0232B242B252B21F408950A26F8
:1018A00009F4A140A6958FEF811D811D08950E9426
:1018B0006A0C0C94DE0C0E94D00C38F00E94D70CFD
:1018C00020F0952311F00C94C70C0C94CD0C11242E
:1018D0000C94120D0E94EF0C70F3959FC1F3950FBD
:1018E00050E0551F629FF001729FBB27F00DB11DA4
:1018F000639FAA27F00DB11DAA1F649F6627B00D34
:10190000A11D661F829F2227B00DA11D621F739F1C
:10191000B00DA11D621F839FA00D611D221F749F2A
:101920003327A00D611D231F849F600D211D822F71
:10193000762F6A2F11249F5750409AF0F1F0882398
:101940004AF0EE0FFF1FBB1F661F771F881F9150C5
:101950005040A9F79E3F510580F00C94C70C0C94A1
:10196000120D5F3FE4F3983ED4F386957795679523
:10197000B795F795E7959F5FC1F7FE2B880F911DEF
:101980009695879597F9089599278827089597F947
:101990009F6780E870E060E008959FEF80EC089515
:1019A00000240A941616170618060906089500243E
:1019B0000A9412161306140605060895092E0394B8
:1019C000000C11F4882352F0BB0F40F4BF2B11F42C
:1019D00060FF04C06F5F7F4F8F4F9F4F089557FD8B
:1019E0009058440F551F59F05F3F71F04795880F8D
:1019F00097FB991F61F09F3F79F087950895121624
:101A000013061406551FF2CF4695F1DF08C01616CF
:101A100017061806991FF1CF869571056105089480
:101A20000895E894BB2766277727CB0197F9089597
:101A30002F923F924F925F926F927F928F929F92DE
:101A4000AF92BF92CF92DF92EF92FF920F931F93CC
:101A5000CF93DF93CDB7DEB7CA1BDB0B0FB6F8947D
:101A6000DEBF0FBECDBF09942A88398848885F84BD
:101A70006E847D848C849B84AA84B984C884DF802E
:101A8000EE80FD800C811B81AA81B981CE0FD11D12
:101A90000FB6F894DEBF0FBECDBFED0108955058CC
:101AA000BB27AA270E94670D0C94DE0C0E94D00C65
:101AB00038F00E94D70C20F039F49F3F19F426F437
:101AC0000C94CD0C0EF4E095E7FB0C94C70CE92FB9
:101AD0000E94EF0C58F3BA17620773078407950743
:101AE00020F079F4A6F50C94110D0EF4E0950B2E70
:101AF000BA2FA02D0B01B90190010C01CA01A00160
:101B00001124FF27591B99F0593F50F4503E68F1BA
:101B10001A16F040A22F232F342F4427585FF3CFFB
:101B2000469537952795A795F0405395C9F77EF4CC
:101B30001F16BA0B620B730B840BBAF09150A1F015
:101B4000FF0FBB1F661F771F881FC2F70EC0BA0F9B
:101B5000621F731F841F48F4879577956795B79523
:101B6000F7959E3F08F0B0CF9395880F08F099271E
:101B7000EE0F9795879508950E94D00D0C94DE0C7A
:101B80000E94D70C58F00E94D00C40F029F45F3F1F
:101B900029F00C94C70C51110C94120D0C94CD0C1F
:101BA0000E94EF0C68F39923B1F3552391F3951B31
:101BB000550BBB27AA2762177307840738F09F5F6E
:101BC0005F4F220F331F441FAA1FA9F335D00E2EDB
:101BD0003AF0E0E832D091505040E695001CCAF748
:101BE0002BD0FE2F29D0660F771F881FBB1F26170B
:101BF00037074807AB07B0E809F0BB0B802DBF01E2
:101C0000FF2793585F4F3AF09E3F510578F00C94B0
:101C1000C70C0C94120D5F3FE4F3983ED4F3869505
:101C200077956795B795F7959F5FC9F7880F911DD1
:101C30009695879597F90895E1E0660F771F881FBD
:101C4000BB1F621773078407BA0720F0621B730B70
:101C5000840BBA0BEE1F88F7E09508950E94350EAD
:101C60006894B1110C94120D08950E94F70C88F03D
:101C70009F5798F0B92F9927B751B0F0E1F0660F50
:101C8000771F881F991F1AF0BA95C9F714C0B13091
:101C900091F00E94110DB1E008950C94110D672F81
:101CA000782F8827B85F39F0B93FCCF386957795C0
:101CB0006795B395D9F73EF49095809570956195A9
:101CC0007F4F8F4F9F4F08950E94330C08F48FEF82
:101CD0000895FA01EE0FFF1F309621053105A1F19D
:101CE0006115710561F48038BFE39B0749F1689481
:101CF0009038810561F08038BFEF9B0741F0992350
:101D00004AF5FF3FE1053105210519F1E8940894F2
:101D1000E795D901AA2329F4AB2FBE2FF85FD0F3A2
:101D200010C0FF5F70F4A695E0F7F73950F019F096
:101D3000FF3A38F49F779F930DD00F9007FC90588F
:101D4000089546F00C94CD0C60E070E080E89FE3CD
:101D500008954FE79F775F934F933F932F930E9490
:101D6000690F2F913F914F915F910E94570C0C94F6
:101D7000C60E0E94330C880B990B089529F416F0B7
:101D80000C94C70C0C94110D0C94CD0C0E94F70C04
:101D9000A8F39638A0F707F80F92E8942BE33AEAF5
:101DA00048EB5FE70E946D0C0F920F920F924DB7B8
:101DB0005EB70F920E94B10FE8E6F0E00E94F80EC5
:101DC0004F915F91EF91FF91E595EE1FFF1F49F055
:101DD000FE57E0684427EE0F441FFA95E1F741955E
:101DE000550B0E942B0F0F9007FE0C941F0F0895A8
:101DF000DF93CF931F930F93FF92EF92DF927B01BC
:101E00008C01689406C0DA2EEF010E946A0CFE0174
:101E1000E894A5912591359145915591A6F3EF014F
:101E20000E94670DFE019701A801DA9469F7DF901F
:101E3000EF90FF900F911F91CF91DF9108959B013B
:101E4000AC0160E070E080E89FE30C94BC0D0C9462
:101E5000C70C0C94E50F0E94F70CD8F39923C9F333
:101E6000940F511DA3F39150504094F059F08823E2
:101E700032F0660F771F881F91505040C1F79E3F88
:101E800051052CF7880F911D9695879597F9089520
:101E90005F3FACF0983E9CF0BB27869577956795A1
:101EA000B79508F4B1609395C1F7BB0F58F711F4DB
:101EB00060FFE8CF6F5F7F4F8F4F9F4FE3CF0C9452
:101EC000120D16F00C94E50F0C94CD0C68940C9444
:101ED000C70C0E94F70CA8F39923C1F3AEF3DF936C
:101EE000CF931F930F93FF92C92FDD2788232AF0EA
:101EF0002197660F771F881FDAF720E030E040E86F
:101F00005FEB9FE3883920F0803E38F021968F7791
:101F10000E94500DE0E9F0E004C00E94500DEDEB8E
:101F2000F0E00E94F80E8B01BE01EC01FB2E6F5712
:101F300071097595771F880B990B0E94F80B28E1A2
:101F400032E741E35FE30E946A0CAF2D9801AE01D6
:101F5000FF900F911F91CF91DF910E94670D0C941C
:101F6000DE0CFA01DC01AA0FBB1F9B01AC01BF57BD
:101F700028F4222733274427507820C0B75190F403
:101F8000AB2F0024469537952795011CA395D2F3D6
:101F9000002071F0220F331F441FB395DAF30ED0E7
:101FA0000C944F0D61307105A0E88A07B94630F4F2
:101FB0009B01AC016627772788279078309621F01F
:101FC000208331834283538308959F3F31F09150A2
:101FD00020F4879577956795B795880F911D96950D
:101FE000879597F90895A1E21A2EAA1BBB1BFD0144
:101FF0000DC0AA1FBB1FEE1FFF1FA217B307E407E8
:10200000F50720F0A21BB30BE40BF50B661F771F3F
:10201000881F991F1A9469F760957095809590951F
:102020009B01AC01BD01CF010895EE0FFF1F05908C
:10203000F491E02D0994CF93DF938230910510F451
:1020400082E090E0E0916002F091610220E030E0F7
:10205000C0E0D0E0309711F1408151814817590715
:10206000C0F04817590761F482819381209719F0D5
:102070009B838A832BC0909361028093600226C069
:102080002115310519F04217530718F49A01BE01C2
:10209000DF01EF010280F381E02DDCCF2115310556
:1020A00009F1281B390B2430310590F412968D91DB
:1020B0009C9113976115710521F0FB019383828335
:1020C00004C09093610280936002FD01329644C087
:1020D000FD01E20FF31F81939193225031092D935B
:1020E0003C933AC020915E0230915F02232B41F471
:1020F000209108013091090130935F0220935E0224
:1021000020910601309107012115310541F42DB7C9
:102110003EB740910A0150910B01241B350BE09111
:102120005E02F0915F02E217F307A0F42E1B3F0B53
:102130002817390778F0AC014E5F5F4F2417350739
:1021400048F04E0F5F1F50935F0240935E028193F1
:10215000919302C0E0E0F0E0CF01DF91CF910895CC
:102160000F931F93CF93DF93009709F48CC0FC016A
:102170003297138212820091600210916102011560
:10218000110581F420813181820F931F20915E021D
:1021900030915F022817390779F5F0935F02E093D9
:1021A0005E0271C0D80140E050E0AE17BF0750F4A6
:1021B00012962D913C911397AD012115310509F12E
:1021C000D901F3CF9D01DA013383228360817181CC
:1021D000860F971F8217930769F4EC0128813981D4
:1021E000260F371F2E5F3F4F318320838A819B81CB
:1021F00093838283452B29F4F0936102E09360027C
:1022000042C01396FC93EE931297ED0149915991B8
:102210009E01240F351FE217F30771F4808191812D
:10222000840F951F029611969C938E9382819381C1
:1022300013969C938E931297E0E0F0E0D8011296EB
:102240008D919C911397009719F0F8018C01F6CFAE
:102250008D919C9198012E5F3F4F820F931F20918B
:102260005E0230915F022817390769F4309729F42C
:10227000109261021092600202C0138212821093C7
:102280005F0200935E02DF91CF911F910F9108953D
:10229000A0E0B0E0EEE4F1E10C941C0DEC0100973D
:1022A00021F4CB010E941B10B8C0FC01E60FF71F00
:1022B0009C0122503109E217F30708F4ACC0D901A0
:1022C0000D911C91119706171707B0F005301105F5
:1022D00008F49FC0C80104978617970708F499C0AF
:1022E00002501109061B170B019311936D937C93F8
:1022F000CF010E94B0108DC05B01A01AB10A4C0141
:10230000800E911EA0916002B091610240E050E009
:10231000E12CF12C109709F44AC0A815B905D1F5A4
:102320006D907C901197630182E0C80ED11CCA1495
:10233000DB0480F1A3014A195B096A0182E0C80E3F
:10234000D11C1296BC9012971396AC91B5E0CB16A7
:10235000D10440F0B282A38351834083D9016D93AD
:102360007C930AC00E5F1F4FC301800F911FF901BC
:1023700091838083EB2DFA2FE114F10431F0D70122
:102380001396FC93EE93129744C0F0936102E0938E
:1023900060023FC08D919C9111974817590708F42E
:1023A000AC017D0112960D90BC91A02DB3CF809110
:1023B0005E0290915F0288159905E1F44617570770
:1023C000C8F48091060190910701009741F48DB700
:1023D0009EB740910A0150910B01841B950BE817A1
:1023E000F907C8F4F0935F02E0935E02F90171838C
:1023F00060830FC0CB010E941B107C01009759F035
:10240000A801BE010E941712CE010E94B010C701A0
:1024100004C0CE0102C080E090E0CDB7DEB7EEE0B0
:102420000C94380D81E090E0F8940C945015FB0169
:10243000DC0102C001900D9241505040D8F7089540
:10244000FB01DC0101900D920020E1F70895AEE060
:10245000B0E0EDE2F2E10C94280D85E08C838B89ED
:102460009C899A838983AE01495E5F4F6D897E891D
:10247000CE0101960E94C0132E96E2E00C94440D0A
:1024800020FD09C0FC0123FD05C022FF02C07383AB
:10249000628351834083089544FD10C046FD10C0FF
:1024A000DB01FC01AA0FBB1FEE1FFF1F1094D1F729
:1024B0006A0F7B1F8E1F9F1F31E003C033E001C0F6
:1024C00034E0660F771F881F991F3150D1F7620FD4
:1024D000711D811D911D08950F931F93CF93DF935D
:1024E0008C01C8010E94F914EC0197FD08C00E94FC
:1024F000E80B892BB1F7B801CE010E943715CE0148
:10250000DF91CF911F910F910895A1E0B0E0EBE82A
:10251000F2E10C941E0D8C01C62E7A0129830E94D3
:10252000F914AC01552729814B32510521F04D3268
:10253000510569F42068CA94C11002C080E076C0D9
:10254000C80129830E94F914298197FDF7CF322F02
:102550003D7FD32E322F307349F5803339F5BB24BC
:10256000BA94BC0C09F44EC0C80129830E94F91426
:10257000298197FD47C0382F3F7D383569F48D2D6F
:102580008264D82ECA94CA94CC20E1F1C8010E947A
:10259000F91497FF0BC036C026FF04C02D2D226012
:1025A000D22E03C03D2D3261D32ECB2C812C912C09
:1025B000540120ED280F283080F0D4FE04C0B8016B
:1025C0000E9437151CC02A3040F0D6FEF8CF2F7D70
:1025D0003FEE320F363098F727504D2DC501B4012C
:1025E0000E944C124B015C018D2D8260D82ECA9442
:1025F000CC2059F0C8010E94F91497FFDACFD1FC22
:1026000004C09CCF812C912C5401D7FE08C0B094FB
:10261000A09490948094811C911CA11CB11C2D2D20
:10262000B501A401C7010E94401281E02196ECE0AF
:102630000C943A0DA1E2B0E0E0E2F3E10C941C0D41
:102640005C017A01CE0101966C0180E2F6011192E3
:102650008A95E9F7F501838040E050E0912C712CD8
:1026600070E0A1E0B0E0F90183FC859183FE8191E7
:102670008F01982F9F01811103C080E090E07CC002
:102680008E3519F44115510549F1E72FF0E0E417B3
:10269000F5073CF48D3559F18D3219F4772001F1AD
:1026A00003C0711001C0982E892F86958695869556
:1026B0008601080F111D892F87703D0101C0660C2E
:1026C0008A95EAF7F801808186298083991559F067
:1026D000991510F49F5FE8CF9150E6CF71E004C0E8
:1026E0007724739401C0712C4F5F5F4FBCCF77206C
:1026F00019F08E8180628E83711103C099249394A6
:1027000016C0F6019E012F5D3F4F80818095819319
:10271000E217F307D1F7F2CFE114F10429F0F70142
:102720008083C70101967C016150912CF9F0C501AD
:1027300069A30E94F91469A197FD16C0282F269558
:1027400026952695F601E20FF11D208130E0AC01BF
:102750004770552702C0359527954A95E2F720FD29
:10276000DBCFB5010E943715911087CFE114F1043A
:1027700011F0F7011082C801A196EEE00C94380D1B
:102780004F925F927F928F929F92AF92BF92CF9221
:10279000DF92EF92FF920F931F93CF93DF931F92DD
:1027A000CDB7DEB76C012B015A01FC0117821682EE
:1027B000712CF601F380F201F3FC8591F3FE819117
:1027C000382F2F01882309F4F3C090E039830E9449
:1027D000E80B3981892B21F0C6010E946C12E9CFE8
:1027E000353241F4F201F3FC3591F3FE31912F01C2
:1027F000353269F4C60139830E94F914398197FD95
:10280000D5C03817B1F2B6010E943715D1C03A329F
:1028100039F4F3FC3591F3FE31912F0151E001C001
:1028200050E0420110E020ED230F2A3090F4526076
:10283000612F70E080E090E040E259830E944C12EA
:10284000162FF401F3FC3591F3FE31914F015981BC
:10285000EACF052F232F240151FF03C0111102C01D
:10286000A7C01FEF383619F03C3659F011C0F401FB
:10287000F3FC2591F3FE21912F01283649F4052F11
:1028800008600460F201F3FC2591F3FE21912F0111
:10289000222309F48DC0622F70E08AEE90E0298334
:1028A0000E94EE142981892B09F482C000FD07C023
:1028B000F501E080F180C50102965C0102C0E12CC7
:1028C000F12C2E3651F4F6014681578160E070E01C
:1028D000202FC7010E9440126CCF233691F401FFD4
:1028E00011E0C6010E94F91497FD60C0E114F104E3
:1028F00029F0F7018083C70101967C01115089F707
:1029000051C02B3559F49201A701612FC6010E94D5
:102910001A132C01892B09F045C03FC0C601298339
:102920000E946C12298197FD41C02F3659F128F47D
:10293000243631F1293649F127C0233769F025378C
:10294000F9F022C0E114F10429F0F7018082C701F7
:1029500001967C01115071F0C6010E94F9144C01DE
:1029600097FD08C00E94E80B892B61F3B601C401F2
:102970000E943715E114F104A9F0F701108212C08A
:10298000006203C0006101C00064202FA701612F15
:10299000C6010E948512811105C0F60183818073F2
:1029A00029F406C000FD05CF739403CF772019F0FA
:1029B000872D90E002C08FEF9FEF0F90DF91CF91B6
:1029C0001F910F91FF90EF90DF90CF90BF90AF904D
:1029D0009F908F907F905F904F900895FC0105909D
:1029E000061621F00020D9F7C00108953197CF01D4
:1029F0000895CF93DF93EC012B8120FF33C026FF96
:102A00000AC02F7B2B838E819F8101969F838E83AB
:102A10008A8190E029C022FF0FC0E881F98180817E
:102A2000082E000C990B009719F420622B831AC012
:102A30003196F983E8830EC0EA85FB85099597FFF7
:102A400009C02B81019611F080E201C080E1822B48
:102A50008B8308C02E813F812F5F3F4F3F832E83A2
:102A6000992702C08FEF9FEFDF91CF910895FB016F
:102A7000238120FF12C026FD10C08F3F3FEF930738
:102A800061F082832F7D206423832681378121504A
:102A9000310937832683992708958FEF9FEF089593
:102AA00010E0C9EAD0E004C0FE010E941510219692
:0A2AB000CA3AD107C9F7F894FFCF26
:102ABA0000002042010000006202800000000000C5
:102ACA006F01DC000701B601380116012A01000076
:102ADA0000008E04DC003502340278202564207957
:102AEA00202564207A20256420652025642074200E
:102AFA002564200A000D0A0054656D703A200047CB
:102B0A006F616C3A20006E616E00696E66006F76C6
:022B1A00660053
:00000001FF
